01000101010310002207131900300PENSÕES                                                                                             000000000000005000,00010101
01000101010310002207131901100VENCIMENTOS E VANTAGENS FIXAS - PESSOAL CIVIL                                                       000000000010982000,00010101
01000101010310002207131901300OBRIGAÇÕES PATRONAIS                                                                                000000000002306000,00010101
01000101010310002207131909400INDENIZAÇÕES TRABALHISTAS                                                                           000000000000050000,00010101
01000101010310002207131909600RESSARCIMENTO DE DESPESAS DE PESSOAL REQUISITADO                                                    000000000000035000,00010101
01000101010310002207133901400DIÁRIAS - CIVIL                                                                                     000000000000200000,00010101
01000101010310002207133903000MATERIAL DE CONSUMO                                                                                 000000000000762000,00010101
01000101010310002207133903500SERVIÇOS DE CONSULTORIA                                                                             000000000000100000,00010101
01000101010310002207133903600OUTROS SERVIÇOS DE TERCEIROS - PESSOA FÍSICA                                                        000000000000030000,00010101
01000101010310002207133903900OUTROS SERVIÇOS DE TERCEIROS - PESSOA JURÍDICA                                                      000000000001090000,00010101
01000101010310002207133904600AUXÍLIO-ALIMENTAÇÃO                                                                                 000000000000840000,00010101
01000101010310002207133904800OUTROS AUXÍLIOS FINANCEIROS A PESSOAS FÍSICAS                                                       000000000000001000,00010101
01000101010310002207133909200DESPESAS DE EXERCÍCIOS ANTERIORES                                                                   000000000000030000,00010101
01000101010310002207144905100OBRAS E INSTALAÇÕES                                                                                 000000000000150000,00010101
01000101010310002207144905200EQUIPAMENTOS E MATERIAL PERMANENTE                                                                  000000000000150000,00010101
02000201041220116204433903000MATERIAL DE CONSUMO                                                                                 000000000000002000,00010101
02000201041220116204433903601OUTROS SERV DE TERCEIROS - PESSOA FISICA/ALUGUEL DE IMOVEIS                                         000000000000038000,00010101
02000201041220116204433903602OUTROS SERV DE TERCEIROS - PESSOA FISICA/FRETE                                                      000000000000001000,00010101
02000201041220116204433903603OUTROS SERV DE TERCEIROS - PESSOA FISICA/AUTONOMO                                                   000000000000003000,00010101
02000201041220116204433903900OUTROS SERVIÇOS DE TERCEIROS - PESSOA JURÍDICA                                                      000000000000005000,00010101
02000201041220116204444905200EQUIPAMENTOS E MATERIAL PERMANENTE                                                                  000000000000005000,00010101
02000201041220116204531901100VENCIMENTOS E VANTAGENS FIXAS - PESSOAL CIVIL                                                       000000000001904177,17010101
02000201041220116204531901300OBRIGAÇÕES PATRONAIS                                                                                000000000000380052,33010101
02000201041220116204531909400INDENIZAÇÕES TRABALHISTAS                                                                           000000000000010000,00010101
02000201041220116204531909600RESSARCIMENTO DE DESPESAS DE PESSOAL REQUISITADO                                                    000000000000100000,00010101
02000201041220116204533503900OUTROS SERVIÇOS DE TERCEIROS - PESSOA JURÍDICA                                                      000000000000020000,00010101
02000201041220116204533901400DIÁRIAS - CIVIL                                                                                     000000000000200000,00010101
02000201041220116204533903000MATERIAL DE CONSUMO                                                                                 000000000000220292,04010101
02000201041220116204533903300PASSAGENS E DESPESAS COM LOCOMOÇÃO                                                                  000000000000490000,00010101
02000201041220116204533903400OUTRAS DESPESAS DE PESSOAL DECORRENTES DE TERCEIRIZAÇÃO                                             000000000000300000,00010101
02000201041220116204533903601OUTROS SERV DE TERCEIROS - PESSOA FISICA/ALUGUEL DE IMOVEIS                                         000000000000005000,00010101
02000201041220116204533903602OUTROS SERV DE TERCEIROS - PESSOA FISICA/FRETE                                                      000000000000005000,00010101
02000201041220116204533903603OUTROS SERV DE TERCEIROS - PESSOA FISICA/AUTONOMO                                                   000000000000080000,00010101
02000201041220116204533903604OUTROS SERV DE TERCEIROS - PESSOA FISICA/LOC DE VEICULOS                                            000000000000005000,00010101
02000201041220116204533903606OUTROS SERV. DE TERCEIROS - PESSOA FÍSICA/ESTAGIÁRIOS                                               000000000000015000,00010101
02000201041220116204533903900OUTROS SERVIÇOS DE TERCEIROS - PESSOA JURÍDICA                                                      000000000000962568,35010101
02000201041220116204533904700OBRIGAÇÕES TRIBUTÁRIAS E CONTRIBUTIVAS                                                              000000000000005000,00010101
02000201041220116204533909200DESPESAS DE EXERCÍCIOS ANTERIORES                                                                   000000000000010000,00010101
02000201041220116204533909300INDENIZAÇÕES E RESTITUIÇÕES                                                                         000000000000005000,00010101
02000201041220116204544905200EQUIPAMENTOS E MATERIAL PERMANENTE                                                                  000000000000130000,00010101
02000201041220116217733503900OUTROS SERVIÇOS DE TERCEIROS - PESSOA JURÍDICA                                                      000000000000100000,00010101
02000201041220116217733903000MATERIAL DE CONSUMO                                                                                 000000000000007603,67010101
02000201041220116217733903300PASSAGENS E DESPESAS COM LOCOMOÇÃO                                                                  000000000000006292,69010101
02000201041220116217733903601OUTROS SERV DE TERCEIROS - PESSOA FISICA/ALUGUEL DE IMOVEIS                                         000000000000006292,69010101
02000201041220116217733903602OUTROS SERV DE TERCEIROS - PESSOA FISICA/FRETE                                                      000000000000006292,69010101
02000201041220116217733903603OUTROS SERV DE TERCEIROS - PESSOA FISICA/AUTONOMO                                                   000000000000006292,69010101
02000201041220116217733903900OUTROS SERVIÇOS DE TERCEIROS - PESSOA JURÍDICA                                                      000000000000024417,56010122
02000201041220116217733903900OUTROS SERVIÇOS DE TERCEIROS - PESSOA JURÍDICA                                                      000000000000050000,00010101
02000201041220116217733903900OUTROS SERVIÇOS DE TERCEIROS - PESSOA JURÍDICA                                                      000000000000006714,37010118
02000201041220116217744905200EQUIPAMENTOS E MATERIAL PERMANENTE                                                                  000000000000003967,85010122
02000201041220116217744905200EQUIPAMENTOS E MATERIAL PERMANENTE                                                                  000000000000002271,26010101
02000201041220116217744905200EQUIPAMENTOS E MATERIAL PERMANENTE                                                                  000000000000001091,09010118
02000201041220116233033903000MATERIAL DE CONSUMO                                                                                 000000000000003500,00010101
02000201041220116233033903603OUTROS SERV DE TERCEIROS - PESSOA FISICA/AUTONOMO                                                   000000000000002000,00010101
02000201041220116233033903900OUTROS SERVIÇOS DE TERCEIROS - PESSOA JURÍDICA                                                      000000000000006000,00010101
02000201041220116233044905200EQUIPAMENTOS E MATERIAL PERMANENTE                                                                  000000000000006000,00010101
02000201041310116203733903000MATERIAL DE CONSUMO                                                                                 000000000000050000,00010101
02000201041310116203733903601OUTROS SERV DE TERCEIROS - PESSOA FISICA/ALUGUEL DE IMOVEIS                                         000000000000005000,00010101
02000201041310116203733903602OUTROS SERV DE TERCEIROS - PESSOA FISICA/FRETE                                                      000000000000021631,12010101
02000201041310116203733903603OUTROS SERV DE TERCEIROS - PESSOA FISICA/AUTONOMO                                                   000000000000100000,00010101
02000201041310116203733903900OUTROS SERVIÇOS DE TERCEIROS - PESSOA JURÍDICA                                                      000000000001388319,08010101
03000301041220001211733903000MATERIAL DE CONSUMO                                                                                 000000000000009172,38010101
03000301041220001211733903900OUTROS SERVIÇOS DE TERCEIROS - PESSOA JURÍDICA                                                      000000000000007075,83010101
03000301041220413207031901100VENCIMENTOS E VANTAGENS FIXAS - PESSOAL CIVIL                                                       000000000001430890,97010101
03000301041220413207031901300OBRIGAÇÕES PATRONAIS                                                                                000000000000320247,03010101
03000301041220413207031909400INDENIZAÇÕES TRABALHISTAS                                                                           000000000000022887,27010101
03000301041220413207031909600RESSARCIMENTO DE DESPESAS DE PESSOAL REQUISITADO                                                    000000000000005000,00010101
03000301041220413207033503900OUTROS SERVIÇOS DE TERCEIROS - PESSOA JURÍDICA                                                      000000000000410619,79010101
03000301041220413207033901400DIÁRIAS - CIVIL                                                                                     000000000000007075,83010101
03000301041220413207033903000MATERIAL DE CONSUMO                                                                                 000000000000046211,31010101
03000301041220413207033903300PASSAGENS E DESPESAS COM LOCOMOÇÃO                                                                  000000000000019655,10010101
03000301041220413207033903400OUTRAS DESPESAS DE PESSOAL DECORRENTES DE TERCEIRIZAÇÃO                                             000000000000005852,85010101
03000301041220413207033903500SERVIÇOS DE CONSULTORIA                                                                             000000000000100608,57010101
03000301041220413207033903601OUTROS SERV DE TERCEIROS - PESSOA FISICA/ALUGUEL DE IMOVEIS                                         000000000000010000,00010101
03000301041220413207033903602OUTROS SERV DE TERCEIROS - PESSOA FISICA/FRETE                                                      000000000000002358,61010101
03000301041220413207033903603OUTROS SERV DE TERCEIROS - PESSOA FISICA/AUTONOMO                                                   000000000000035000,00010101
03000301041220413207033903604OUTROS SERV DE TERCEIROS - PESSOA FISICA/LOC DE VEICULOS                                            000000000000041581,45010101
03000301041220413207033903606OUTROS SERV. DE TERCEIROS - PESSOA FÍSICA/ESTAGIÁRIOS                                               000000000000020000,00010101
03000301041220413207033903900OUTROS SERVIÇOS DE TERCEIROS - PESSOA JURÍDICA                                                      000000000000150357,72010101
03000301041220413207033904700OBRIGAÇÕES TRIBUTÁRIAS E CONTRIBUTIVAS                                                              000000000000005000,00010101
03000301041220413207033909200DESPESAS DE EXERCÍCIOS ANTERIORES                                                                   000000000000005765,49010101
03000301041220413207044905200EQUIPAMENTOS E MATERIAL PERMANENTE                                                                  000000000000040358,46010101
04000401041220063101933903000MATERIAL DE CONSUMO                                                                                 000000000000000800,00010101
04000401041220063101933903000MATERIAL DE CONSUMO                                                                                 000000000000000160,00010118
04000401041220063101933903603OUTROS SERV DE TERCEIROS - PESSOA FISICA/AUTONOMO                                                   000000000000000800,00010101
04000401041220063101933903603OUTROS SERV DE TERCEIROS - PESSOA FISICA/AUTONOMO                                                   000000000000000160,00010118
04000401041220063101933903900OUTROS SERVIÇOS DE TERCEIROS - PESSOA JURÍDICA                                                      000000000000000160,00010118
04000401041220063101933903900OUTROS SERVIÇOS DE TERCEIROS - PESSOA JURÍDICA                                                      000000000000000800,00010101
04000401041220063101944905100OBRAS E INSTALAÇÕES                                                                                 000000000000000800,00010101
04000401041220063101944905100OBRAS E INSTALAÇÕES                                                                                 000000000000000160,00010118
04000401041220063101944905200EQUIPAMENTOS E MATERIAL PERMANENTE                                                                  000000000000000160,00010118
04000401041220063101944905200EQUIPAMENTOS E MATERIAL PERMANENTE                                                                  000000000000000800,00010101
04000401041220063108833903000MATERIAL DE CONSUMO                                                                                 000000000000100000,00010101
04000401041220063108833903000MATERIAL DE CONSUMO                                                                                 000000000000001000,00010118
04000401041220063108833903000MATERIAL DE CONSUMO                                                                                 000000000000001000,00010122
04000401041220063108833903900OUTROS SERVIÇOS DE TERCEIROS - PESSOA JURÍDICA                                                      000000000000001000,00010122
04000401041220063108833903900OUTROS SERVIÇOS DE TERCEIROS - PESSOA JURÍDICA                                                      000000000000001000,00010118
04000401041220063108833903900OUTROS SERVIÇOS DE TERCEIROS - PESSOA JURÍDICA                                                      000000000000300000,00010101
04000401041220063108844905100OBRAS E INSTALAÇÕES                                                                                 000000000000001000,00010122
04000401041220063108844905100OBRAS E INSTALAÇÕES                                                                                 000000000000040000,00010101
04000401041220063108844905100OBRAS E INSTALAÇÕES                                                                                 000000000000000500,00010118
04000401041220063108844905200EQUIPAMENTOS E MATERIAL PERMANENTE                                                                  000000000000001000,00010118
04000401041220063108844905200EQUIPAMENTOS E MATERIAL PERMANENTE                                                                  000000000000800000,00010101
04000401041220063108844905200EQUIPAMENTOS E MATERIAL PERMANENTE                                                                  000000000000001000,00010122
04000401041220063111933503900OUTROS SERVIÇOS DE TERCEIROS - PESSOA JURÍDICA                                                      000000000000000500,00010122
04000401041220063111933503900OUTROS SERVIÇOS DE TERCEIROS - PESSOA JURÍDICA                                                      000000000000000500,00010118
04000401041220063111933503900OUTROS SERVIÇOS DE TERCEIROS - PESSOA JURÍDICA                                                      000000000000001000,00010101
04000401041220063111933903000MATERIAL DE CONSUMO                                                                                 000000000000001000,00010101
04000401041220063111933903000MATERIAL DE CONSUMO                                                                                 000000000000000500,00010118
04000401041220063111933903000MATERIAL DE CONSUMO                                                                                 000000000000000500,00010122
04000401041220063111933903603OUTROS SERV DE TERCEIROS - PESSOA FISICA/AUTONOMO                                                   000000000000000500,00010122
04000401041220063111933903603OUTROS SERV DE TERCEIROS - PESSOA FISICA/AUTONOMO                                                   000000000000000500,00010118
04000401041220063111933903603OUTROS SERV DE TERCEIROS - PESSOA FISICA/AUTONOMO                                                   000000000000001000,00010101
04000401041220063111933903900OUTROS SERVIÇOS DE TERCEIROS - PESSOA JURÍDICA                                                      000000000000000500,00010122
04000401041220063111933903900OUTROS SERVIÇOS DE TERCEIROS - PESSOA JURÍDICA                                                      000000000000000500,00010118
04000401041220063111933903900OUTROS SERVIÇOS DE TERCEIROS - PESSOA JURÍDICA                                                      000000000000001000,00010101
04000401041220063111944905100OBRAS E INSTALAÇÕES                                                                                 000000000000320000,00010101
04000401041220063111944905100OBRAS E INSTALAÇÕES                                                                                 000000000000000500,00010122
04000401041220063111944905100OBRAS E INSTALAÇÕES                                                                                 000000000000000500,00010118
04000401041220063111944905200EQUIPAMENTOS E MATERIAL PERMANENTE                                                                  000000000000000500,00010118
04000401041220063111944905200EQUIPAMENTOS E MATERIAL PERMANENTE                                                                  000000000000320000,00010101
04000401041220063111944905200EQUIPAMENTOS E MATERIAL PERMANENTE                                                                  000000000000000500,00010122
04000401041220063127333903000MATERIAL DE CONSUMO                                                                                 000000000000000200,00010122
04000401041220063127333903000MATERIAL DE CONSUMO                                                                                 000000000000002000,00010101
04000401041220063127333903900OUTROS SERVIÇOS DE TERCEIROS - PESSOA JURÍDICA                                                      000000000000000200,00010122
04000401041220063127333903900OUTROS SERVIÇOS DE TERCEIROS - PESSOA JURÍDICA                                                      000000000000002000,00010101
04000401041220063127344905200EQUIPAMENTOS E MATERIAL PERMANENTE                                                                  000000000000120000,00010101
04000401041220063127344905200EQUIPAMENTOS E MATERIAL PERMANENTE                                                                  000000000000002000,00010122
04000401041220063127433903000MATERIAL DE CONSUMO                                                                                 000000000000000200,00010122
04000401041220063127433903000MATERIAL DE CONSUMO                                                                                 000000000000002000,00010101
04000401041220063127433903900OUTROS SERVIÇOS DE TERCEIROS - PESSOA JURÍDICA                                                      000000000000000200,00010122
04000401041220063127433903900OUTROS SERVIÇOS DE TERCEIROS - PESSOA JURÍDICA                                                      000000000000002000,00010101
04000401041220063127444905200EQUIPAMENTOS E MATERIAL PERMANENTE                                                                  000000000000120000,00010101
04000401041220063127444905200EQUIPAMENTOS E MATERIAL PERMANENTE                                                                  000000000000002000,00010122
04000401041220063127531901100VENCIMENTOS E VANTAGENS FIXAS - PESSOAL CIVIL                                                       000000000000010000,00010101
04000401041220063127531901300OBRIGAÇÕES PATRONAIS                                                                                000000000000002400,00010101
04000401041220063127533903000MATERIAL DE CONSUMO                                                                                 000000000000050000,00010101
04000401041220063127533903603OUTROS SERV DE TERCEIROS - PESSOA FISICA/AUTONOMO                                                   000000000000003000,00010101
04000401041220063127533903900OUTROS SERVIÇOS DE TERCEIROS - PESSOA JURÍDICA                                                      000000000000010000,00010101
04000401041220063127544905200EQUIPAMENTOS E MATERIAL PERMANENTE                                                                  000000000000015000,00010101
04000401041220063210831901100VENCIMENTOS E VANTAGENS FIXAS - PESSOAL CIVIL                                                       000000000000170000,00010101
04000401041220063210833903000MATERIAL DE CONSUMO                                                                                 000000000000040000,00010101
04000401041220063210833903602OUTROS SERV DE TERCEIROS - PESSOA FISICA/FRETE                                                      000000000000001000,00010101
04000401041220063210833903603OUTROS SERV DE TERCEIROS - PESSOA FISICA/AUTONOMO                                                   000000000000005000,00010118
04000401041220063210833903604OUTROS SERV DE TERCEIROS - PESSOA FISICA/LOC DE VEICULOS                                            000000000000001000,00010101
04000401041220063210833903900OUTROS SERVIÇOS DE TERCEIROS - PESSOA JURÍDICA                                                      000000000000010000,00010101
04000401041220063210844905200EQUIPAMENTOS E MATERIAL PERMANENTE                                                                  000000000000010000,00010101
04000401041220063213033901400DIÁRIAS - CIVIL                                                                                     000000000000010000,00010101
04000401041220063213033903000MATERIAL DE CONSUMO                                                                                 000000000000160000,00010101
04000401041220063213033903300PASSAGENS E DESPESAS COM LOCOMOÇÃO                                                                  000000000000010000,00010101
04000401041220063213033903500SERVIÇOS DE CONSULTORIA                                                                             000000000000002000,00010101
04000401041220063213033903603OUTROS SERV DE TERCEIROS - PESSOA FISICA/AUTONOMO                                                   000000000000008000,00010101
04000401041220063213033903604OUTROS SERV DE TERCEIROS - PESSOA FISICA/LOC DE VEICULOS                                            000000000000001000,00010101
04000401041220063213033903900OUTROS SERVIÇOS DE TERCEIROS - PESSOA JURÍDICA                                                      000000000000040000,00010101
04000401041220063213033909200DESPESAS DE EXERCÍCIOS ANTERIORES                                                                   000000000000002000,00010101
04000401041220063213044905100OBRAS E INSTALAÇÕES                                                                                 000000000000005000,00010101
04000401041220063213044905200EQUIPAMENTOS E MATERIAL PERMANENTE                                                                  000000000000050000,00010101
04000401041220064102633903000MATERIAL DE CONSUMO                                                                                 000000000000000166,42010118
04000401041220064102633903000MATERIAL DE CONSUMO                                                                                 000000000000500000,00010101
04000401041220064102633903000MATERIAL DE CONSUMO                                                                                 000000000000000536,30010122
04000401041220064102633903603OUTROS SERV DE TERCEIROS - PESSOA FISICA/AUTONOMO                                                   000000000000000181,23010101
04000401041220064102633903603OUTROS SERV DE TERCEIROS - PESSOA FISICA/AUTONOMO                                                   000000000000000831,02010122
04000401041220064102633903603OUTROS SERV DE TERCEIROS - PESSOA FISICA/AUTONOMO                                                   000000000000000257,86010118
04000401041220064102633903900OUTROS SERVIÇOS DE TERCEIROS - PESSOA JURÍDICA                                                      000000000000000250,54010118
04000401041220064102633903900OUTROS SERVIÇOS DE TERCEIROS - PESSOA JURÍDICA                                                      000000000000000807,41010122
04000401041220064102633903900OUTROS SERVIÇOS DE TERCEIROS - PESSOA JURÍDICA                                                      000000000001849100,00010101
04000401041220064102644905100OBRAS E INSTALAÇÕES                                                                                 000000000000000690,19010122
04000401041220064102644905100OBRAS E INSTALAÇÕES                                                                                 000000000000000974,94010101
04000401041220064102644905100OBRAS E INSTALAÇÕES                                                                                 000000000000000214,17010118
04000401041220064102644905200EQUIPAMENTOS E MATERIAL PERMANENTE                                                                  000000000000000690,19010122
04000401041220064102644905200EQUIPAMENTOS E MATERIAL PERMANENTE                                                                  000000000000000214,17010118
04000401041220064102644905200EQUIPAMENTOS E MATERIAL PERMANENTE                                                                  000000000000000167,60010101
04000401041220064204033901400DIÁRIAS - CIVIL                                                                                     000000000000009756,61010101
04000401041220064204033903000MATERIAL DE CONSUMO                                                                                 000000000000320000,00010101
04000401041220064204033903300PASSAGENS E DESPESAS COM LOCOMOÇÃO                                                                  000000000000009756,61010101
04000401041220064204033903601OUTROS SERV DE TERCEIROS - PESSOA FISICA/ALUGUEL DE IMOVEIS                                         000000000000002926,62010101
04000401041220064204033903602OUTROS SERV DE TERCEIROS - PESSOA FISICA/FRETE                                                      000000000000001950,77010101
04000401041220064204033903603OUTROS SERV DE TERCEIROS - PESSOA FISICA/AUTONOMO                                                   000000000000004878,31010101
04000401041220064204033903900OUTROS SERVIÇOS DE TERCEIROS - PESSOA JURÍDICA                                                      000000000000199944,95010101
04000401041220064204044905100OBRAS E INSTALAÇÕES                                                                                 000000000000012246,78010101
04000401041220064204044905200EQUIPAMENTOS E MATERIAL PERMANENTE                                                                  000000000000053373,00010101
04000401041220064227533903601OUTROS SERV DE TERCEIROS - PESSOA FISICA/ALUGUEL DE IMOVEIS                                         000000000000000100,00010101
04000401041220064227533903602OUTROS SERV DE TERCEIROS - PESSOA FISICA/FRETE                                                      000000000000000200,00010101
04000401041220064227533903603OUTROS SERV DE TERCEIROS - PESSOA FISICA/AUTONOMO                                                   000000000000002500,00010101
04000401041220064227544905100OBRAS E INSTALAÇÕES                                                                                 000000000000001000,00010101
04000401041220065215231901100VENCIMENTOS E VANTAGENS FIXAS - PESSOAL CIVIL                                                       000000000011103000,00010101
04000401041220065215231901300OBRIGAÇÕES PATRONAIS                                                                                000000000002659168,00010101
04000401041220065215231909400INDENIZAÇÕES TRABALHISTAS                                                                           000000000000025000,00010101
04000401041220065215231909600RESSARCIMENTO DE DESPESAS DE PESSOAL REQUISITADO                                                    000000000000001000,00010101
04000401041220065215233503900OUTROS SERVIÇOS DE TERCEIROS - PESSOA JURÍDICA                                                      000000000000011568,13010101
04000401041220065215233901400DIÁRIAS - CIVIL                                                                                     000000000000006829,08010101
04000401041220065215233903000MATERIAL DE CONSUMO                                                                                 000000000000213324,93010101
04000401041220065215233903200MATERIAL DE DISTRIBUIÇÃO GRATUITA                                                                   000000000000029270,74010101
04000401041220065215233903300PASSAGENS E DESPESAS COM LOCOMOÇÃO                                                                  000000000000025000,00010101
04000401041220065215233903400OUTRAS DESPESAS DE PESSOAL DECORRENTES DE TERCEIRIZAÇÃO                                             000000000000036000,00010101
04000401041220065215233903500SERVIÇOS DE CONSULTORIA                                                                             000000000000008000,00010101
04000401041220065215233903601OUTROS SERV DE TERCEIROS - PESSOA FISICA/ALUGUEL DE IMOVEIS                                         000000000000028000,00010101
04000401041220065215233903602OUTROS SERV DE TERCEIROS - PESSOA FISICA/FRETE                                                      000000000000008000,00010101
04000401041220065215233903603OUTROS SERV DE TERCEIROS - PESSOA FISICA/AUTONOMO                                                   000000000000014589,75010101
04000401041220065215233903604OUTROS SERV DE TERCEIROS - PESSOA FISICA/LOC DE VEICULOS                                            000000000000008000,00010101
04000401041220065215233903605OUTRAS DESPESAS PAGAS DIRETAMENTE À PESSOA FÍSICA                                                   000000000000005000,00010101
04000401041220065215233903606OUTROS SERV. DE TERCEIROS - PESSOA FÍSICA/ESTAGIÁRIOS                                               000000000000019000,00010101
04000401041220065215233903900OUTROS SERVIÇOS DE TERCEIROS - PESSOA JURÍDICA                                                      000000000000250000,00010101
04000401041220065215233904700OBRIGAÇÕES TRIBUTÁRIAS E CONTRIBUTIVAS                                                              000000000000005000,00010101
04000401041220065215233909200DESPESAS DE EXERCÍCIOS ANTERIORES                                                                   000000000000015000,00010101
04000401041220065215233909300INDENIZAÇÕES E RESTITUIÇÕES                                                                         000000000000006000,00010101
04000401041220065215244905100OBRAS E INSTALAÇÕES                                                                                 000000000000150000,00010101
04000401041220065215244905200EQUIPAMENTOS E MATERIAL PERMANENTE                                                                  000000000000084089,00010101
04000401041220065215333503900OUTROS SERVIÇOS DE TERCEIROS - PESSOA JURÍDICA                                                      000000000000001000,00010101
04000401041220065215333903000MATERIAL DE CONSUMO                                                                                 000000000000020442,59010101
04000401041220065215333903500SERVIÇOS DE CONSULTORIA                                                                             000000000000010221,30010101
04000401041220065215333903603OUTROS SERV DE TERCEIROS - PESSOA FISICA/AUTONOMO                                                   000000000000016400,73010101
04000401041220065215333903900OUTROS SERVIÇOS DE TERCEIROS - PESSOA JURÍDICA                                                      000000000000500000,00010101
04000401041220065215344905200EQUIPAMENTOS E MATERIAL PERMANENTE                                                                  000000000000010221,30010101
04000401041220066105433503900OUTROS SERVIÇOS DE TERCEIROS - PESSOA JURÍDICA                                                      000000000000000080,00010101
04000401041220066105433503900OUTROS SERVIÇOS DE TERCEIROS - PESSOA JURÍDICA                                                      000000000000001100,00010118
04000401041220066105433903000MATERIAL DE CONSUMO                                                                                 000000000000000250,00010118
04000401041220066105433903000MATERIAL DE CONSUMO                                                                                 000000000000001100,00010101
04000401041220066105433903603OUTROS SERV DE TERCEIROS - PESSOA FISICA/AUTONOMO                                                   000000000000000900,00010101
04000401041220066105433903603OUTROS SERV DE TERCEIROS - PESSOA FISICA/AUTONOMO                                                   000000000000001100,00010118
04000401041220066105433903900OUTROS SERVIÇOS DE TERCEIROS - PESSOA JURÍDICA                                                      000000000000000900,00010101
04000401041220066105433903900OUTROS SERVIÇOS DE TERCEIROS - PESSOA JURÍDICA                                                      000000000000000200,00010118
04000401041220066105444905100OBRAS E INSTALAÇÕES                                                                                 000000000000001000,00010101
04000401041220066105444905100OBRAS E INSTALAÇÕES                                                                                 000000000000001200,00010118
04000401041220066105444905200EQUIPAMENTOS E MATERIAL PERMANENTE                                                                  000000000000000400,00010118
04000401041220066105444905200EQUIPAMENTOS E MATERIAL PERMANENTE                                                                  000000000000000900,00010101
04000401041220066112433503900OUTROS SERVIÇOS DE TERCEIROS - PESSOA JURÍDICA                                                      000000000000000755,56010122
04000401041220066112433503900OUTROS SERVIÇOS DE TERCEIROS - PESSOA JURÍDICA                                                      000000000000000234,45010118
04000401041220066112433503900OUTROS SERVIÇOS DE TERCEIROS - PESSOA JURÍDICA                                                      000000000000000530,55010101
04000401041220066112433903000MATERIAL DE CONSUMO                                                                                 000000000000000530,55010101
04000401041220066112433903000MATERIAL DE CONSUMO                                                                                 000000000000000234,45010118
04000401041220066112433903000MATERIAL DE CONSUMO                                                                                 000000000000000755,56010122
04000401041220066112433903603OUTROS SERV DE TERCEIROS - PESSOA FISICA/AUTONOMO                                                   000000000000000234,45010118
04000401041220066112433903603OUTROS SERV DE TERCEIROS - PESSOA FISICA/AUTONOMO                                                   000000000000000755,56010122
04000401041220066112433903603OUTROS SERV DE TERCEIROS - PESSOA FISICA/AUTONOMO                                                   000000000000000530,55010101
04000401041220066112433903900OUTROS SERVIÇOS DE TERCEIROS - PESSOA JURÍDICA                                                      000000000000000530,55010101
04000401041220066112433903900OUTROS SERVIÇOS DE TERCEIROS - PESSOA JURÍDICA                                                      000000000000000234,45010118
04000401041220066112433903900OUTROS SERVIÇOS DE TERCEIROS - PESSOA JURÍDICA                                                      000000000000000755,56010122
04000401041220066112444905100OBRAS E INSTALAÇÕES                                                                                 000000000000000265,05010118
04000401041220066112444905100OBRAS E INSTALAÇÕES                                                                                 000000000000001502,61010122
04000401041220066112444905100OBRAS E INSTALAÇÕES                                                                                 000000000000000416,22010101
04000401041220066112444905200EQUIPAMENTOS E MATERIAL PERMANENTE                                                                  000000000000000416,22010101
04000401041220066112444905200EQUIPAMENTOS E MATERIAL PERMANENTE                                                                  000000000000000178,81010118
04000401041220066112444905200EQUIPAMENTOS E MATERIAL PERMANENTE                                                                  000000000000000506,74010122
04000401041220066125033903000MATERIAL DE CONSUMO                                                                                 000000000000006000,00010101
04000401041220066125033903603OUTROS SERV DE TERCEIROS - PESSOA FISICA/AUTONOMO                                                   000000000000001000,00010101
04000401041220066125033903900OUTROS SERVIÇOS DE TERCEIROS - PESSOA JURÍDICA                                                      000000000000010000,00010101
04000401041220066125044905100OBRAS E INSTALAÇÕES                                                                                 000000000000180000,00010101
04000401041220066125044905200EQUIPAMENTOS E MATERIAL PERMANENTE                                                                  000000000000040000,00010101
04000401041220066204144905100OBRAS E INSTALAÇÕES                                                                                 000000000000180000,00010101
04000401041220066217133503900OUTROS SERVIÇOS DE TERCEIROS - PESSOA JURÍDICA                                                      000000000000000035,00010122
04000401041220066217133503900OUTROS SERVIÇOS DE TERCEIROS - PESSOA JURÍDICA                                                      000000000000000011,00010118
04000401041220066217133503900OUTROS SERVIÇOS DE TERCEIROS - PESSOA JURÍDICA                                                      000000000000005000,00010101
04000401041220066217133901400DIÁRIAS - CIVIL                                                                                     000000000000005000,00010101
04000401041220066217133903000MATERIAL DE CONSUMO                                                                                 000000000000000035,00010122
04000401041220066217133903000MATERIAL DE CONSUMO                                                                                 000000000000020000,00010101
04000401041220066217133903000MATERIAL DE CONSUMO                                                                                 000000000000000011,00010118
04000401041220066217133903200MATERIAL DE DISTRIBUIÇÃO GRATUITA                                                                   000000000000034000,00010101
04000401041220066217133903300PASSAGENS E DESPESAS COM LOCOMOÇÃO                                                                  000000000000004800,00010101
04000401041220066217133903601OUTROS SERV DE TERCEIROS - PESSOA FISICA/ALUGUEL DE IMOVEIS                                         000000000000000900,00010101
04000401041220066217133903602OUTROS SERV DE TERCEIROS - PESSOA FISICA/FRETE                                                      000000000000001900,00010101
04000401041220066217133903603OUTROS SERV DE TERCEIROS - PESSOA FISICA/AUTONOMO                                                   000000000000013900,00010101
04000401041220066217133903900OUTROS SERVIÇOS DE TERCEIROS - PESSOA JURÍDICA                                                      000000000000700000,00010101
04000401041220066217144905100OBRAS E INSTALAÇÕES                                                                                 000000000000050000,00010101
04000401041220066217144905100OBRAS E INSTALAÇÕES                                                                                 000000000000000010,00010118
04000401041220066217144905100OBRAS E INSTALAÇÕES                                                                                 000000000000000030,00010122
06000601123060149211233903000MATERIAL DE CONSUMO                                                                                 000000000002450000,00010115
06000601123060149211233903000MATERIAL DE CONSUMO                                                                                 000000000000026206,79010102
06000601123060150207533903000MATERIAL DE CONSUMO                                                                                 000000000000210000,00010115
06000601123060150207533903000MATERIAL DE CONSUMO                                                                                 000000000000125000,00010102
06000601123060153210333903000MATERIAL DE CONSUMO                                                                                 000000000001290998,27010115
06000601123060153210333903000MATERIAL DE CONSUMO                                                                                 000000000000026206,79010102
06000601123610149119733903900OUTROS SERVIÇOS DE TERCEIROS - PESSOA JURÍDICA                                                      000000000000100000,00010115
06000601123610149119733903900OUTROS SERVIÇOS DE TERCEIROS - PESSOA JURÍDICA                                                      000000000000005000,00010102
06000601123610149119733903900OUTROS SERVIÇOS DE TERCEIROS - PESSOA JURÍDICA                                                      000000000000150000,00010110
06000601123610149119744905100OBRAS E INSTALAÇÕES                                                                                 000000000001660000,00010115
06000601123610149119744905100OBRAS E INSTALAÇÕES                                                                                 000000000000855444,53010110
06000601123610149119744905100OBRAS E INSTALAÇÕES                                                                                 000000000001600000,00010102
06000601123610149119744905200EQUIPAMENTOS E MATERIAL PERMANENTE                                                                  000000000000050000,00010110
06000601123610149119744905200EQUIPAMENTOS E MATERIAL PERMANENTE                                                                  000000000000150000,00010115
06000601123610149119744905200EQUIPAMENTOS E MATERIAL PERMANENTE                                                                  000000000000150000,00010102
06000601123610149209031901100VENCIMENTOS E VANTAGENS FIXAS - PESSOAL CIVIL                                                       000000000003946438,09010102
06000601123610149209031901300OBRIGAÇÕES PATRONAIS                                                                                000000000000756936,58010102
06000601123610149209031909400INDENIZAÇÕES TRABALHISTAS                                                                           000000000000087242,42010102
06000601123610149209031909600RESSARCIMENTO DE DESPESAS DE PESSOAL REQUISITADO                                                    000000000000297414,99010102
06000601123610149209033901400DIÁRIAS - CIVIL                                                                                     000000000000038296,86010102
06000601123610149209033903000MATERIAL DE CONSUMO                                                                                 000000000000855000,00010102
06000601123610149209033903000MATERIAL DE CONSUMO                                                                                 000000000000012589,44010115
06000601123610149209033903000MATERIAL DE CONSUMO                                                                                 000000000000584623,94010110
06000601123610149209033903300PASSAGENS E DESPESAS COM LOCOMOÇÃO                                                                  000000000000001196,78010102
06000601123610149209033903400OUTRAS DESPESAS DE PESSOAL DECORRENTES DE TERCEIRIZAÇÃO                                             000000000001200000,00010102
06000601123610149209033903601OUTROS SERV DE TERCEIROS - PESSOA FISICA/ALUGUEL DE IMOVEIS                                         000000000000200000,00010102
06000601123610149209033903602OUTROS SERV DE TERCEIROS - PESSOA FISICA/FRETE                                                      000000000000057445,29010102
06000601123610149209033903603OUTROS SERV DE TERCEIROS - PESSOA FISICA/AUTONOMO                                                   000000000000011754,88010102
06000601123610149209033903604OUTROS SERV DE TERCEIROS - PESSOA FISICA/LOC DE VEICULOS                                            000000000000028574,14010102
06000601123610149209033903606OUTROS SERV. DE TERCEIROS - PESSOA FÍSICA/ESTAGIÁRIOS                                               000000000000050000,00010102
06000601123610149209033903700LOCAÇÃO DE MÃO-DE-OBRA                                                                              000000000003400000,00010102
06000601123610149209033903900OUTROS SERVIÇOS DE TERCEIROS - PESSOA JURÍDICA                                                      000000000001000000,00010102
06000601123610149209033903900OUTROS SERVIÇOS DE TERCEIROS - PESSOA JURÍDICA                                                      000000000000500000,00010110
06000601123610149209033904700OBRIGAÇÕES TRIBUTÁRIAS E CONTRIBUTIVAS                                                              000000000000020000,00010102
06000601123610149209033909200DESPESAS DE EXERCÍCIOS ANTERIORES                                                                   000000000000001000,00010119
06000601123610149209033909200DESPESAS DE EXERCÍCIOS ANTERIORES                                                                   000000000000405000,00010102
06000601123610149209044905200EQUIPAMENTOS E MATERIAL PERMANENTE                                                                  000000000000146155,98010110
06000601123610149209044905200EQUIPAMENTOS E MATERIAL PERMANENTE                                                                  000000000000012589,44010115
06000601123610149209044905200EQUIPAMENTOS E MATERIAL PERMANENTE                                                                  000000000000014702,01010102
06000601123610149209231901100VENCIMENTOS E VANTAGENS FIXAS - PESSOAL CIVIL                                                       000000000003100627,18010102
06000601123610149209231901300OBRIGAÇÕES PATRONAIS                                                                                000000000001200000,00010102
06000601123610149209231909400INDENIZAÇÕES TRABALHISTAS                                                                           000000000000087142,00010102
06000601123610149209233503900OUTROS SERVIÇOS DE TERCEIROS - PESSOA JURÍDICA                                                      000000000000300000,00010102
06000601123610149209233901400DIÁRIAS - CIVIL                                                                                     000000000000037296,86010102
06000601123610149209233903000MATERIAL DE CONSUMO                                                                                 000000000000365389,96010110
06000601123610149209233903000MATERIAL DE CONSUMO                                                                                 000000000000087516,72010102
06000601123610149209233903000MATERIAL DE CONSUMO                                                                                 000000000000020982,40010115
06000601123610149209233903000MATERIAL DE CONSUMO                                                                                 000000000000076304,88010119
06000601123610149209233903400OUTRAS DESPESAS DE PESSOAL DECORRENTES DE TERCEIRIZAÇÃO                                             000000000000001000,00010102
06000601123610149209233903601OUTROS SERV DE TERCEIROS - PESSOA FISICA/ALUGUEL DE IMOVEIS                                         000000000000168736,81010102
06000601123610149209233903602OUTROS SERV DE TERCEIROS - PESSOA FISICA/FRETE                                                      000000000000203443,34010102
06000601123610149209233903603OUTROS SERV DE TERCEIROS - PESSOA FISICA/AUTONOMO                                                   000000000000059830,11010102
06000601123610149209233903604OUTROS SERV DE TERCEIROS - PESSOA FISICA/LOC DE VEICULOS                                            000000000000002157,69010102
06000601123610149209233903900OUTROS SERVIÇOS DE TERCEIROS - PESSOA JURÍDICA                                                      000000000000740132,36010110
06000601123610149209233903900OUTROS SERVIÇOS DE TERCEIROS - PESSOA JURÍDICA                                                      000000000000215411,11010102
06000601123610149209244905100OBRAS E INSTALAÇÕES                                                                                 000000000000100000,00010102
06000601123610149209244905100OBRAS E INSTALAÇÕES                                                                                 000000000000300000,00010115
06000601123610149209244905100OBRAS E INSTALAÇÕES                                                                                 000000000000050000,00010119
06000601123610149209244905100OBRAS E INSTALAÇÕES                                                                                 000000000000300000,00010110
06000601123610149209244905200EQUIPAMENTOS E MATERIAL PERMANENTE                                                                  000000000000146155,98010110
06000601123610149209244905200EQUIPAMENTOS E MATERIAL PERMANENTE                                                                  000000000000200000,00010115
06000601123610149209244905200EQUIPAMENTOS E MATERIAL PERMANENTE                                                                  000000000000014361,32010102
06000601123610149209244905200EQUIPAMENTOS E MATERIAL PERMANENTE                                                                  000000000000076304,88010119
06000601123610149209246907100PRINCIPAL DA DÍVIDA CONTRATUAL RESGATADO                                                            000000000000009303,41010102
06000601123610149209633503900OUTROS SERVIÇOS DE TERCEIROS - PESSOA JURÍDICA                                                      000000000000001000,00010102
06000601123610149209633903000MATERIAL DE CONSUMO                                                                                 000000000000373000,00010102
06000601123610149209633903000MATERIAL DE CONSUMO                                                                                 000000000000073077,99010110
06000601123610149209633903602OUTROS SERV DE TERCEIROS - PESSOA FISICA/FRETE                                                      000000000000584623,94010110
06000601123610149209633903602OUTROS SERV DE TERCEIROS - PESSOA FISICA/FRETE                                                      000000000000610000,00010115
06000601123610149209633903602OUTROS SERV DE TERCEIROS - PESSOA FISICA/FRETE                                                      000000000000040000,00010119
06000601123610149209633903602OUTROS SERV DE TERCEIROS - PESSOA FISICA/FRETE                                                      000000000001222983,74010102
06000601123610149209633903603OUTROS SERV DE TERCEIROS - PESSOA FISICA/AUTONOMO                                                   000000000000001441,37010102
06000601123610149209633903900OUTROS SERVIÇOS DE TERCEIROS - PESSOA JURÍDICA                                                      000000000000205000,00010110
06000601123610149209633903900OUTROS SERVIÇOS DE TERCEIROS - PESSOA JURÍDICA                                                      000000000000005000,00010102
06000601123610149209633903900OUTROS SERVIÇOS DE TERCEIROS - PESSOA JURÍDICA                                                      000000000000610000,00010119
06000601123610149209633909200DESPESAS DE EXERCÍCIOS ANTERIORES                                                                   000000000000001000,00010119
06000601123610149209633909200DESPESAS DE EXERCÍCIOS ANTERIORES                                                                   000000000000001000,00010110
06000601123610149209633909200DESPESAS DE EXERCÍCIOS ANTERIORES                                                                   000000000000001000,00010102
06000601123610149209644905200EQUIPAMENTOS E MATERIAL PERMANENTE                                                                  000000000000026165,06010115
06000601123610149219033503900OUTROS SERVIÇOS DE TERCEIROS - PESSOA JURÍDICA                                                      000000000000500000,00010102
06000601123610149219333503900OUTROS SERVIÇOS DE TERCEIROS - PESSOA JURÍDICA                                                      000000000000005000,00010110
06000601123610149219333503900OUTROS SERVIÇOS DE TERCEIROS - PESSOA JURÍDICA                                                      000000000000005000,00010102
06000601123610149219333903000MATERIAL DE CONSUMO                                                                                 000000000000055000,00010110
06000601123610149219333903000MATERIAL DE CONSUMO                                                                                 000000000000055000,00010102
06000601123610149219333903900OUTROS SERVIÇOS DE TERCEIROS - PESSOA JURÍDICA                                                      000000000000100000,00010102
06000601123610149219333903900OUTROS SERVIÇOS DE TERCEIROS - PESSOA JURÍDICA                                                      000000000000100000,00010110
06000601123610149219344905200EQUIPAMENTOS E MATERIAL PERMANENTE                                                                  000000000000080000,00010115
06000601123610149219344905200EQUIPAMENTOS E MATERIAL PERMANENTE                                                                  000000000000005000,00010102
06000601123610149219344905200EQUIPAMENTOS E MATERIAL PERMANENTE                                                                  000000000000400000,00010110
06000601123620042119533503900OUTROS SERVIÇOS DE TERCEIROS - PESSOA JURÍDICA                                                      000000000000500000,00010102
06000601123620042119533903000MATERIAL DE CONSUMO                                                                                 000000000000100000,00010102
06000601123620042119533903300PASSAGENS E DESPESAS COM LOCOMOÇÃO                                                                  000000000000005000,00010102
06000601123620042119533903602OUTROS SERV DE TERCEIROS - PESSOA FISICA/FRETE                                                      000000000000047000,00010102
06000601123620042119533903603OUTROS SERV DE TERCEIROS - PESSOA FISICA/AUTONOMO                                                   000000000000016754,88010102
06000601123620042119533903900OUTROS SERVIÇOS DE TERCEIROS - PESSOA JURÍDICA                                                      000000000000100000,00010102
06000601123620042119544905100OBRAS E INSTALAÇÕES                                                                                 000000000000002000,00010102
06000601123620042119544905200EQUIPAMENTOS E MATERIAL PERMANENTE                                                                  000000000000096787,61010102
06000601123620042119633903000MATERIAL DE CONSUMO                                                                                 000000000000005000,00010102
06000601123620042119633903300PASSAGENS E DESPESAS COM LOCOMOÇÃO                                                                  000000000000030000,00010102
06000601123620042119633903603OUTROS SERV DE TERCEIROS - PESSOA FISICA/AUTONOMO                                                   000000000000016754,88010102
06000601123620042119633903900OUTROS SERVIÇOS DE TERCEIROS - PESSOA JURÍDICA                                                      000000000000100000,00010102
06000601123640041119833503900OUTROS SERVIÇOS DE TERCEIROS - PESSOA JURÍDICA                                                      000000000000050000,00010102
06000601123640041119833901400DIÁRIAS - CIVIL                                                                                     000000000000005000,00010102
06000601123640041119833903000MATERIAL DE CONSUMO                                                                                 000000000000010000,00010102
06000601123640041119833903300PASSAGENS E DESPESAS COM LOCOMOÇÃO                                                                  000000000000005000,00010102
06000601123640041119833903603OUTROS SERV DE TERCEIROS - PESSOA FISICA/AUTONOMO                                                   000000000000005000,00010102
06000601123640041119833903900OUTROS SERVIÇOS DE TERCEIROS - PESSOA JURÍDICA                                                      000000000000010000,00010102
06000601123640041119844905200EQUIPAMENTOS E MATERIAL PERMANENTE                                                                  000000000000005000,00010102
06000601123640043219433903000MATERIAL DE CONSUMO                                                                                 000000000000094625,35010102
06000601123640043219433903602OUTROS SERV DE TERCEIROS - PESSOA FISICA/FRETE                                                      000000000000105000,00010102
06000601123640043219433903603OUTROS SERV DE TERCEIROS - PESSOA FISICA/AUTONOMO                                                   000000000000009000,00010102
06000601123640043219433903900OUTROS SERVIÇOS DE TERCEIROS - PESSOA JURÍDICA                                                      000000000000160749,30010102
06000601123640043219444905200EQUIPAMENTOS E MATERIAL PERMANENTE                                                                  000000000000005000,00010102
06000601123650153111633903900OUTROS SERVIÇOS DE TERCEIROS - PESSOA JURÍDICA                                                      000000000000005000,00010110
06000601123650153111633903900OUTROS SERVIÇOS DE TERCEIROS - PESSOA JURÍDICA                                                      000000000000005000,00010102
06000601123650153111644905100OBRAS E INSTALAÇÕES                                                                                 000000000000380000,00010110
06000601123650153111644905100OBRAS E INSTALAÇÕES                                                                                 000000000001000000,00010115
06000601123650153111644905100OBRAS E INSTALAÇÕES                                                                                 000000000000100000,00010119
06000601123650153111644905100OBRAS E INSTALAÇÕES                                                                                 000000000000300000,00010102
06000601123650153111644905200EQUIPAMENTOS E MATERIAL PERMANENTE                                                                  000000000000005000,00010102
06000601123650153111644905200EQUIPAMENTOS E MATERIAL PERMANENTE                                                                  000000000000050000,00010115
06000601123650153111644905200EQUIPAMENTOS E MATERIAL PERMANENTE                                                                  000000000000045000,00010110
06000601123650153210231901100VENCIMENTOS E VANTAGENS FIXAS - PESSOAL CIVIL                                                       000000000001779685,55010102
06000601123650153210231901300OBRIGAÇÕES PATRONAIS                                                                                000000000000350601,81010102
06000601123650153210231909400INDENIZAÇÕES TRABALHISTAS                                                                           000000000000057000,00010102
06000601123650153210233503900OUTROS SERVIÇOS DE TERCEIROS - PESSOA JURÍDICA                                                      000000000000334136,19010110
06000601123650153210233901400DIÁRIAS - CIVIL                                                                                     000000000000014361,32010102
06000601123650153210233903000MATERIAL DE CONSUMO                                                                                 000000000000061149,19010102
06000601123650153210233903000MATERIAL DE CONSUMO                                                                                 000000000000190002,78010110
06000601123650153210233903000MATERIAL DE CONSUMO                                                                                 000000000000054554,25010115
06000601123650153210233903000MATERIAL DE CONSUMO                                                                                 000000000000045782,93010119
06000601123650153210233903601OUTROS SERV DE TERCEIROS - PESSOA FISICA/ALUGUEL DE IMOVEIS                                         000000000000084962,53010102
06000601123650153210233903603OUTROS SERV DE TERCEIROS - PESSOA FISICA/AUTONOMO                                                   000000000000014361,32010102
06000601123650153210233903604OUTROS SERV DE TERCEIROS - PESSOA FISICA/LOC DE VEICULOS                                            000000000000001441,37010102
06000601123650153210233903606OUTROS SERV. DE TERCEIROS - PESSOA FÍSICA/ESTAGIÁRIOS                                               000000000000800000,00010102
06000601123650153210233903900OUTROS SERVIÇOS DE TERCEIROS - PESSOA JURÍDICA                                                      000000000000165155,22010102
06000601123650153210233903900OUTROS SERVIÇOS DE TERCEIROS - PESSOA JURÍDICA                                                      000000000000526161,54010110
06000601123650153210244905100OBRAS E INSTALAÇÕES                                                                                 000000000000150000,00010119
06000601123650153210244905100OBRAS E INSTALAÇÕES                                                                                 000000000000150000,00010115
06000601123650153210244905100OBRAS E INSTALAÇÕES                                                                                 000000000000150000,00010110
06000601123650153210244905100OBRAS E INSTALAÇÕES                                                                                 000000000000020000,00010102
06000601123650153210244905200EQUIPAMENTOS E MATERIAL PERMANENTE                                                                  000000000000039310,19010102
06000601123650153210244905200EQUIPAMENTOS E MATERIAL PERMANENTE                                                                  000000000000062947,21010115
06000601123650153210244905200EQUIPAMENTOS E MATERIAL PERMANENTE                                                                  000000000000311545,94010110
06000601123650153210244905200EQUIPAMENTOS E MATERIAL PERMANENTE                                                                  000000000000045782,93010119
06000601123650153216933503900OUTROS SERVIÇOS DE TERCEIROS - PESSOA JURÍDICA                                                      000000000000350000,00010110
06000601123660150209733903000MATERIAL DE CONSUMO                                                                                 000000000000012648,19010115
06000601123660150209733903000MATERIAL DE CONSUMO                                                                                 000000000000017471,20010102
06000601123660150209733903000MATERIAL DE CONSUMO                                                                                 000000000000045512,97010110
06000601123660150209733903200MATERIAL DE DISTRIBUIÇÃO GRATUITA                                                                   000000000000001441,37010102
06000601123660150209733903601OUTROS SERV DE TERCEIROS - PESSOA FISICA/ALUGUEL DE IMOVEIS                                         000000000000012570,53010102
06000601123660150209733903603OUTROS SERV DE TERCEIROS - PESSOA FISICA/AUTONOMO                                                   000000000000021839,00010102
06000601123660150209733903603OUTROS SERV DE TERCEIROS - PESSOA FISICA/AUTONOMO                                                   000000000000013428,74010115
06000601123660150209733903603OUTROS SERV DE TERCEIROS - PESSOA FISICA/AUTONOMO                                                   000000000000046769,91010110
06000601123660150209733903900OUTROS SERVIÇOS DE TERCEIROS - PESSOA JURÍDICA                                                      000000000000001441,37010102
06000601123660150209744905200EQUIPAMENTOS E MATERIAL PERMANENTE                                                                  000000000000026206,79010102
06000601123660150209744905200EQUIPAMENTOS E MATERIAL PERMANENTE                                                                  000000000000020982,40010115
06000601123660150209744905200EQUIPAMENTOS E MATERIAL PERMANENTE                                                                  000000000000058462,39010110
06000601123680041119433903000MATERIAL DE CONSUMO                                                                                 000000000000050000,00010102
06000601123680041119433903900OUTROS SERVIÇOS DE TERCEIROS - PESSOA JURÍDICA                                                      000000000000100000,00010102
06000601123680041119444905100OBRAS E INSTALAÇÕES                                                                                 000000000000020000,00010102
06000601123680041119444905200EQUIPAMENTOS E MATERIAL PERMANENTE                                                                  000000000000100000,00010102
06000601123680041219133903000MATERIAL DE CONSUMO                                                                                 000000000000100000,00010102
06000601123680041219133903602OUTROS SERV DE TERCEIROS - PESSOA FISICA/FRETE                                                      000000000001000000,00010119
06000601123680041219133903602OUTROS SERV DE TERCEIROS - PESSOA FISICA/FRETE                                                      000000000000100000,00010102
06000601123680041219133903900OUTROS SERVIÇOS DE TERCEIROS - PESSOA JURÍDICA                                                      000000000000300000,00010119
06000601123680041219133903900OUTROS SERVIÇOS DE TERCEIROS - PESSOA JURÍDICA                                                      000000000000005000,00010102
06000601123680041219144905200EQUIPAMENTOS E MATERIAL PERMANENTE                                                                  000000000000005000,00010102
06000601123680041219144905200EQUIPAMENTOS E MATERIAL PERMANENTE                                                                  000000000000055000,00010119
06000601123680041219233503900OUTROS SERVIÇOS DE TERCEIROS - PESSOA JURÍDICA                                                      000000000000010000,00010102
06000601123680041219233901400DIÁRIAS - CIVIL                                                                                     000000000000028520,00010102
06000601123680041219233903000MATERIAL DE CONSUMO                                                                                 000000000000087516,72010102
06000601123680041219233903300PASSAGENS E DESPESAS COM LOCOMOÇÃO                                                                  000000000000040000,00010102
06000601123680041219233903601OUTROS SERV DE TERCEIROS - PESSOA FISICA/ALUGUEL DE IMOVEIS                                         000000000000010000,00010102
06000601123680041219233903603OUTROS SERV DE TERCEIROS - PESSOA FISICA/AUTONOMO                                                   000000000000005200,00010102
06000601123680041219233903700LOCAÇÃO DE MÃO-DE-OBRA                                                                              000000000000005320,00010102
06000601123680041219233903900OUTROS SERVIÇOS DE TERCEIROS - PESSOA JURÍDICA                                                      000000000000040000,00010102
06000601123680041219244905200EQUIPAMENTOS E MATERIAL PERMANENTE                                                                  000000000000100000,00010102
06000603123610005100233903900OUTROS SERVIÇOS DE TERCEIROS - PESSOA JURÍDICA                                                      000000000000100000,00010114
06000603123610005100244905100OBRAS E INSTALAÇÕES                                                                                 000000000001545785,23010114
06000603123610005100244905200EQUIPAMENTOS E MATERIAL PERMANENTE                                                                  000000000002176892,62010114
06000603123610005210731901100VENCIMENTOS E VANTAGENS FIXAS - PESSOAL CIVIL                                                       000000000010412636,28010114
06000603123610005210731901300OBRIGAÇÕES PATRONAIS                                                                                000000000003000000,00010114
06000603123610005210731909400INDENIZAÇÕES TRABALHISTAS                                                                           000000000000017151,88010114
06000603123610005210733503900OUTROS SERVIÇOS DE TERCEIROS - PESSOA JURÍDICA                                                      000000000003008141,91010114
06000603123610005210733903000MATERIAL DE CONSUMO                                                                                 000000000001259344,27010114
06000603123610005210733903200MATERIAL DE DISTRIBUIÇÃO GRATUITA                                                                   000000000000022732,24010114
06000603123610005210733903601OUTROS SERV DE TERCEIROS - PESSOA FISICA/ALUGUEL DE IMOVEIS                                         000000000000011371,47010114
06000603123610005210733903603OUTROS SERV DE TERCEIROS - PESSOA FISICA/AUTONOMO                                                   000000000000545526,76010114
06000603123610005210733903604OUTROS SERV DE TERCEIROS - PESSOA FISICA/LOC DE VEICULOS                                            000000000000002278,57010114
06000603123610005210733903605OUTRAS DESPESAS PAGAS DIRETAMENTE À PESSOA FÍSICA                                                   000000000000203670,19010114
06000603123610005210733903606OUTROS SERV. DE TERCEIROS - PESSOA FÍSICA/ESTAGIÁRIOS                                               000000000000010000,00010114
06000603123610005210733903700LOCAÇÃO DE MÃO-DE-OBRA                                                                              000000000004272892,62010114
06000603123610005210733903900OUTROS SERVIÇOS DE TERCEIROS - PESSOA JURÍDICA                                                      000000000000672892,62010114
06000603123610005210733904700OBRIGAÇÕES TRIBUTÁRIAS E CONTRIBUTIVAS                                                              000000000001078531,74010114
06000603123610005210733909200DESPESAS DE EXERCÍCIOS ANTERIORES                                                                   000000000000001412,51010114
06000603123610005210744905200EQUIPAMENTOS E MATERIAL PERMANENTE                                                                  000000000001000443,11010114
06000603123610005210933903000MATERIAL DE CONSUMO                                                                                 000000000000300000,00010114
06000603123610005210933903602OUTROS SERV DE TERCEIROS - PESSOA FISICA/FRETE                                                      000000000008900000,00010114
06000603123610005210933903604OUTROS SERV DE TERCEIROS - PESSOA FISICA/LOC DE VEICULOS                                            000000000000002278,57010114
06000603123610005210933903900OUTROS SERVIÇOS DE TERCEIROS - PESSOA JURÍDICA                                                      000000000001000000,00010114
06000603123610005210944905200EQUIPAMENTOS E MATERIAL PERMANENTE                                                                  000000000000838918,27010114
06000603123610005211131901100VENCIMENTOS E VANTAGENS FIXAS - PESSOAL CIVIL                                                       000000000023186605,65010113
06000603123610005211131901300OBRIGAÇÕES PATRONAIS                                                                                000000000009691408,11010113
06000603123610005211133903400OUTRAS DESPESAS DE PESSOAL DECORRENTES DE TERCEIRIZAÇÃO                                             000000000015000000,00010113
06000603123610005223233503900OUTROS SERVIÇOS DE TERCEIROS - PESSOA JURÍDICA                                                      000000000003000000,00010114
06000603123610010213933503900OUTROS SERVIÇOS DE TERCEIROS - PESSOA JURÍDICA                                                      000000000000001069,75010114
06000603123610010213933903000MATERIAL DE CONSUMO                                                                                 000000000000083708,14010114
06000603123610010213933903400OUTRAS DESPESAS DE PESSOAL DECORRENTES DE TERCEIRIZAÇÃO                                             000000000000500000,00010114
06000603123610010213933903603OUTROS SERV DE TERCEIROS - PESSOA FISICA/AUTONOMO                                                   000000000000186575,55010114
06000603123610010213933903700LOCAÇÃO DE MÃO-DE-OBRA                                                                              000000000000731071,18010114
06000603123610010213933903900OUTROS SERVIÇOS DE TERCEIROS - PESSOA JURÍDICA                                                      000000000000063340,05010114
06000603123650006210033503900OUTROS SERVIÇOS DE TERCEIROS - PESSOA JURÍDICA                                                      000000000000070000,00010114
06000603123650006210033903000MATERIAL DE CONSUMO                                                                                 000000000000500777,04010114
06000603123650006210033903602OUTROS SERV DE TERCEIROS - PESSOA FISICA/FRETE                                                      000000000000064970,32010114
06000603123650006210033903603OUTROS SERV DE TERCEIROS - PESSOA FISICA/AUTONOMO                                                   000000000000247561,26010114
06000603123650006210033903604OUTROS SERV DE TERCEIROS - PESSOA FISICA/LOC DE VEICULOS                                            000000000000001000,00010114
06000603123650006210033903606OUTROS SERV. DE TERCEIROS - PESSOA FÍSICA/ESTAGIÁRIOS                                               000000000000150000,00010114
06000603123650006210033903900OUTROS SERVIÇOS DE TERCEIROS - PESSOA JURÍDICA                                                      000000000000005953,83010114
06000603123650006210033909200DESPESAS DE EXERCÍCIOS ANTERIORES                                                                   000000000000001020,00010114
06000603123650006210044905200EQUIPAMENTOS E MATERIAL PERMANENTE                                                                  000000000000944945,73010114
06000603123650006210131901100VENCIMENTOS E VANTAGENS FIXAS - PESSOAL CIVIL                                                       000000000008679109,44010113
06000603123650006210131901300OBRIGAÇÕES PATRONAIS                                                                                000000000004900000,00010113
06000603123650006210133903400OUTRAS DESPESAS DE PESSOAL DECORRENTES DE TERCEIRIZAÇÃO                                             000000000005000294,31010113
06000603123650006223333503900OUTROS SERVIÇOS DE TERCEIROS - PESSOA JURÍDICA                                                      000000000001000000,00010114
06000603123660007211333503900OUTROS SERVIÇOS DE TERCEIROS - PESSOA JURÍDICA                                                      000000000000216421,65010114
06000603123660007211333903000MATERIAL DE CONSUMO                                                                                 000000000000171652,50010114
06000603123660007211333903602OUTROS SERV DE TERCEIROS - PESSOA FISICA/FRETE                                                      000000000000059146,62010114
06000603123660007211333903603OUTROS SERV DE TERCEIROS - PESSOA FISICA/AUTONOMO                                                   000000000000179108,67010114
06000603123660007211333903900OUTROS SERVIÇOS DE TERCEIROS - PESSOA JURÍDICA                                                      000000000000300384,03010114
06000603123660007211344905200EQUIPAMENTOS E MATERIAL PERMANENTE                                                                  000000000000321054,15010114
06000603123660007211531901100VENCIMENTOS E VANTAGENS FIXAS - PESSOAL CIVIL                                                       000000000003855021,04010113
06000603123660007211531901300OBRIGAÇÕES PATRONAIS                                                                                000000000002797757,29010113
06000603123660007211533903400OUTRAS DESPESAS DE PESSOAL DECORRENTES DE TERCEIRIZAÇÃO                                             000000000000663796,15010113
07000701103010072128044905200EQUIPAMENTOS E MATERIAL PERMANENTE                                                                  000000000000200000,00010103
07000701103010072128044905200EQUIPAMENTOS E MATERIAL PERMANENTE                                                                  000000000001750000,00010109
07000701103010072128144905100OBRAS E INSTALAÇÕES                                                                                 000000000003000000,00010109
07000701103010072128144905100OBRAS E INSTALAÇÕES                                                                                 000000000000998908,84010120
07000701103010072128144905100OBRAS E INSTALAÇÕES                                                                                 000000000000850000,00010103
07000701103010072128231900400CONTRATAÇÃO POR TEMPO DETERMINADO                                                                   000000000000036000,00010103
07000701103010072128344905200EQUIPAMENTOS E MATERIAL PERMANENTE                                                                  000000000000204000,00010103
07000701103010072128344905200EQUIPAMENTOS E MATERIAL PERMANENTE                                                                  000000000000240000,00010109
07000701103010072227933903000MATERIAL DE CONSUMO                                                                                 000000000001012000,00010103
07000701103010072227933903601OUTROS SERV DE TERCEIROS - PESSOA FISICA/ALUGUEL DE IMOVEIS                                         000000000000056400,00010103
07000701103010072227933903602OUTROS SERV DE TERCEIROS - PESSOA FISICA/FRETE                                                      000000000000162000,00010109
07000701103010072227933903602OUTROS SERV DE TERCEIROS - PESSOA FISICA/FRETE                                                      000000000000087660,00010103
07000701103010072227933903900OUTROS SERVIÇOS DE TERCEIROS - PESSOA JURÍDICA                                                      000000000000878000,00010109
07000701103010072227933903900OUTROS SERVIÇOS DE TERCEIROS - PESSOA JURÍDICA                                                      000000000000204540,00010103
07000701103010072227944905200EQUIPAMENTOS E MATERIAL PERMANENTE                                                                  000000000000320000,00010120
07000701103010072228044905100OBRAS E INSTALAÇÕES                                                                                 000000000000300000,00010103
07000701103010072228044905100OBRAS E INSTALAÇÕES                                                                                 000000000000300000,00010109
07000701103010072228131900400CONTRATAÇÃO POR TEMPO DETERMINADO                                                                   000000000000036000,00010103
07000701103010072228133903900OUTROS SERVIÇOS DE TERCEIROS - PESSOA JURÍDICA                                                      000000000000008000,00010103
07000701103010072228233903000MATERIAL DE CONSUMO                                                                                 000000000000018200,00010103
07000701103010072228233903000MATERIAL DE CONSUMO                                                                                 000000000000012400,00010109
07000701103010072228233903000MATERIAL DE CONSUMO                                                                                 000000000000024000,00010120
07000701103010072228233903603OUTROS SERV DE TERCEIROS - PESSOA FISICA/AUTONOMO                                                   000000000000057800,00010103
07000701103010072228233903603OUTROS SERV DE TERCEIROS - PESSOA FISICA/AUTONOMO                                                   000000000000270600,00010120
07000701103010072228233903603OUTROS SERV DE TERCEIROS - PESSOA FISICA/AUTONOMO                                                   000000000000091600,00010109
07000701103010072228233903900OUTROS SERVIÇOS DE TERCEIROS - PESSOA JURÍDICA                                                      000000000000012000,00010109
07000701103010072228233903900OUTROS SERVIÇOS DE TERCEIROS - PESSOA JURÍDICA                                                      000000000000043000,00010120
07000701103010072228233903900OUTROS SERVIÇOS DE TERCEIROS - PESSOA JURÍDICA                                                      000000000000030000,00010103
07000701103010072228331900400CONTRATAÇÃO POR TEMPO DETERMINADO                                                                   000000000001086170,00010103
07000701103010072228331900400CONTRATAÇÃO POR TEMPO DETERMINADO                                                                   000000000005344600,00010109
07000701103010072228331901100VENCIMENTOS E VANTAGENS FIXAS - PESSOAL CIVIL                                                       000000000027560000,00010103
07000701103010072228331901300OBRIGAÇÕES PATRONAIS                                                                                000000000007059400,00010103
07000701103010072228331901600OUTRAS DESPESAS VARIÁVEIS - PESSOAL CIVIL                                                           000000000000644600,00010109
07000701103010072228331909400INDENIZAÇÕES TRABALHISTAS                                                                           000000000000102000,00010103
07000701103010072228331909600RESSARCIMENTO DE DESPESAS DE PESSOAL REQUISITADO                                                    000000000000270000,00010103
07000701103010072228333901400DIÁRIAS - CIVIL                                                                                     000000000000060000,00010103
07000701103010072228333903000MATERIAL DE CONSUMO                                                                                 000000000000112000,00010103
07000701103010072228333903000MATERIAL DE CONSUMO                                                                                 000000000000947000,00010109
07000701103010072228333903300PASSAGENS E DESPESAS COM LOCOMOÇÃO                                                                  000000000000060000,00010103
07000701103010072228333903601OUTROS SERV DE TERCEIROS - PESSOA FISICA/ALUGUEL DE IMOVEIS                                         000000000000864000,00010109
07000701103010072228333903900OUTROS SERVIÇOS DE TERCEIROS - PESSOA JURÍDICA                                                      000000000000127440,00010109
07000701103010072228333903900OUTROS SERVIÇOS DE TERCEIROS - PESSOA JURÍDICA                                                      000000000000040000,00010103
07000701103010072228333904700OBRIGAÇÕES TRIBUTÁRIAS E CONTRIBUTIVAS                                                              000000000000550000,00010103
07000701103010072228333904800OUTROS AUXÍLIOS FINANCEIROS A PESSOAS FÍSICAS                                                       000000000000201600,00010103
07000701103010072228333909200DESPESAS DE EXERCÍCIOS ANTERIORES                                                                   000000000000260000,00010103
07000701103010072232033903000MATERIAL DE CONSUMO                                                                                 000000000000006000,00010103
07000701103010072232033903900OUTROS SERVIÇOS DE TERCEIROS - PESSOA JURÍDICA                                                      000000000000015000,00010103
07000701103010073128831900400CONTRATAÇÃO POR TEMPO DETERMINADO                                                                   000000000000312000,00010103
07000701103010073228433903000MATERIAL DE CONSUMO                                                                                 000000000000400000,00010109
07000701103010073228433903200MATERIAL DE DISTRIBUIÇÃO GRATUITA                                                                   000000000000060000,00010109
07000701103010073228433903200MATERIAL DE DISTRIBUIÇÃO GRATUITA                                                                   000000000000080000,00010103
07000701103010073228433903300PASSAGENS E DESPESAS COM LOCOMOÇÃO                                                                  000000000000050000,00010103
07000701103010073228433903603OUTROS SERV DE TERCEIROS - PESSOA FISICA/AUTONOMO                                                   000000000000050000,00010109
07000701103010073228433903900OUTROS SERVIÇOS DE TERCEIROS - PESSOA JURÍDICA                                                      000000000000096000,00010109
07000701103010073228433903900OUTROS SERVIÇOS DE TERCEIROS - PESSOA JURÍDICA                                                      000000000000048000,00010103
07000701103010073228444905200EQUIPAMENTOS E MATERIAL PERMANENTE                                                                  000000000000096000,00010109
07000701103010073228931900400CONTRATAÇÃO POR TEMPO DETERMINADO                                                                   000000000000624000,00010103
07000701103010073229244905200EQUIPAMENTOS E MATERIAL PERMANENTE                                                                  000000000000048000,00010109
07000701103010073229244905200EQUIPAMENTOS E MATERIAL PERMANENTE                                                                  000000000000020000,00010103
07000701103010073232133903900OUTROS SERVIÇOS DE TERCEIROS - PESSOA JURÍDICA                                                      000000000000048000,00010103
07000701103010073232133903900OUTROS SERVIÇOS DE TERCEIROS - PESSOA JURÍDICA                                                      000000000000096000,00010109
07000701103010073232144905200EQUIPAMENTOS E MATERIAL PERMANENTE                                                                  000000000000084000,00010116
07000701103010073232233903200MATERIAL DE DISTRIBUIÇÃO GRATUITA                                                                   000000000000010000,00010109
07000701103010073232233903900OUTROS SERVIÇOS DE TERCEIROS - PESSOA JURÍDICA                                                      000000000000006000,00010109
07000701103010073232244905100OBRAS E INSTALAÇÕES                                                                                 000000000000020000,00010109
07000701103010073232244905100OBRAS E INSTALAÇÕES                                                                                 000000000000010000,00010103
07000701103010073232333903000MATERIAL DE CONSUMO                                                                                 000000000000100000,00010109
07000701103010073232433903000MATERIAL DE CONSUMO                                                                                 000000000000025000,00010109
07000701103010073232433903000MATERIAL DE CONSUMO                                                                                 000000000000025000,00010103
07000701103010073232433903900OUTROS SERVIÇOS DE TERCEIROS - PESSOA JURÍDICA                                                      000000000000025000,00010109
07000701103010073232433903900OUTROS SERVIÇOS DE TERCEIROS - PESSOA JURÍDICA                                                      000000000000025000,00010103
07000701103010073232533903000MATERIAL DE CONSUMO                                                                                 000000000000060000,00010109
07000701103010073232533903200MATERIAL DE DISTRIBUIÇÃO GRATUITA                                                                   000000000000020000,00010109
07000701103010073232533903200MATERIAL DE DISTRIBUIÇÃO GRATUITA                                                                   000000000000024000,00010103
07000701103010073232533903601OUTROS SERV DE TERCEIROS - PESSOA FISICA/ALUGUEL DE IMOVEIS                                         000000000000055000,00010109
07000701103010073232533903900OUTROS SERVIÇOS DE TERCEIROS - PESSOA JURÍDICA                                                      000000000000060000,00010109
07000701103010074232633903000MATERIAL DE CONSUMO                                                                                 000000000000080000,00010109
07000701103010074232633903900OUTROS SERVIÇOS DE TERCEIROS - PESSOA JURÍDICA                                                      000000000000100000,00010109
07000701103020072129844905200EQUIPAMENTOS E MATERIAL PERMANENTE                                                                  000000000000125000,00010103
07000701103020072129844905200EQUIPAMENTOS E MATERIAL PERMANENTE                                                                  000000000000125000,00010109
07000701103020072129944905100OBRAS E INSTALAÇÕES                                                                                 000000000000400000,00010116
07000701103020072129944905100OBRAS E INSTALAÇÕES                                                                                 000000000000100000,00010103
07000701103020072129944905100OBRAS E INSTALAÇÕES                                                                                 000000000000100000,00010120
07000701103020072130033903900OUTROS SERVIÇOS DE TERCEIROS - PESSOA JURÍDICA                                                      000000000000040000,00010103
07000701103020072130244905200EQUIPAMENTOS E MATERIAL PERMANENTE                                                                  000000000000054000,00010109
07000701103020072130244905200EQUIPAMENTOS E MATERIAL PERMANENTE                                                                  000000000000054000,00010103
07000701103020072230233903000MATERIAL DE CONSUMO                                                                                 000000000000529200,00010103
07000701103020072230233903602OUTROS SERV DE TERCEIROS - PESSOA FISICA/FRETE                                                      000000000000032400,00010103
07000701103020072230233903900OUTROS SERVIÇOS DE TERCEIROS - PESSOA JURÍDICA                                                      000000000000075600,00010103
07000701103020072230244905200EQUIPAMENTOS E MATERIAL PERMANENTE                                                                  000000000000120000,00010120
0700070110302007223113330390039 - OUTROS SERVIçOS DE TERCEIROS - PESSOA JURíDICA                                                 000000000000650000,00010103
0700070110302007223113371700070 - RATEIO PELA PARTICIPAÇÃO EM CONSÓRCIO PÚBLICO                                                  000000000002265300,00010103
07000701103020072231133903400OUTRAS DESPESAS DE PESSOAL DECORRENTES DE TERCEIRIZAÇÃO                                             000000000032200000,00010109
07000701103020072231133903900OUTROS SERVIÇOS DE TERCEIROS - PESSOA JURÍDICA                                                      000000000094601091,60010109
07000701103020072231133903900OUTROS SERVIÇOS DE TERCEIROS - PESSOA JURÍDICA                                                      000000000001437000,00010103
07000701103020072231133903900OUTROS SERVIÇOS DE TERCEIROS - PESSOA JURÍDICA                                                      000000000009000000,00010120
07000701103020072231533903000MATERIAL DE CONSUMO                                                                                 000000000000012000,00010103
07000701103020072231533903601OUTROS SERV DE TERCEIROS - PESSOA FISICA/ALUGUEL DE IMOVEIS                                         000000000000018000,00010103
07000701103020072231533903900OUTROS SERVIÇOS DE TERCEIROS - PESSOA JURÍDICA                                                      000000000000006000,00010103
07000701103020072231631900400CONTRATAÇÃO POR TEMPO DETERMINADO                                                                   000000000001208730,00010103
07000701103020072231631900400CONTRATAÇÃO POR TEMPO DETERMINADO                                                                   000000000004832000,00010109
07000701103020072231633901400DIÁRIAS - CIVIL                                                                                     000000000000040000,00010103
07000701103020072231633901400DIÁRIAS - CIVIL                                                                                     000000000000010000,00010109
07000701103020072231633903000MATERIAL DE CONSUMO                                                                                 000000000000048000,00010103
07000701103020072231633903000MATERIAL DE CONSUMO                                                                                 000000000000192000,00010109
07000701103020072231633903300PASSAGENS E DESPESAS COM LOCOMOÇÃO                                                                  000000000000020000,00010109
07000701103020072231633903300PASSAGENS E DESPESAS COM LOCOMOÇÃO                                                                  000000000000030000,00010103
07000701103020072231633903900OUTROS SERVIÇOS DE TERCEIROS - PESSOA JURÍDICA                                                      000000000000118000,00010109
07000701103020072231633903900OUTROS SERVIÇOS DE TERCEIROS - PESSOA JURÍDICA                                                      000000000000040000,00010103
07000701103020072231633909100SENTENÇAS JUDICIAIS                                                                                 000000000000300000,00010103
07000701103020072231844905100OBRAS E INSTALAÇÕES                                                                                 000000000000200000,00010103
07000701103020072231844905100OBRAS E INSTALAÇÕES                                                                                 000000000000200000,00010109
07000701103020073128633903900OUTROS SERVIÇOS DE TERCEIROS - PESSOA JURÍDICA                                                      000000000000020000,00010103
07000701103020073128633903900OUTROS SERVIÇOS DE TERCEIROS - PESSOA JURÍDICA                                                      000000000000040000,00010109
07000701103020073129044905200EQUIPAMENTOS E MATERIAL PERMANENTE                                                                  000000000000040000,00010109
07000701103020073129044905200EQUIPAMENTOS E MATERIAL PERMANENTE                                                                  000000000000020000,00010103
07000701103020073129231900400CONTRATAÇÃO POR TEMPO DETERMINADO                                                                   000000000000286128,00010103
07000701103020073129231900400CONTRATAÇÃO POR TEMPO DETERMINADO                                                                   000000000003575152,00010109
07000701103020073129233903000MATERIAL DE CONSUMO                                                                                 000000000000080000,00010103
07000701103020073129233903000MATERIAL DE CONSUMO                                                                                 000000000000400000,00010109
07000701103020073129233903400OUTRAS DESPESAS DE PESSOAL DECORRENTES DE TERCEIRIZAÇÃO                                             000000000000129600,00010103
07000701103020073129233903400OUTRAS DESPESAS DE PESSOAL DECORRENTES DE TERCEIRIZAÇÃO                                             000000000002166400,00010109
07000701103020073129233903900OUTROS SERVIÇOS DE TERCEIROS - PESSOA JURÍDICA                                                      000000000000986710,00010109
07000701103020073129233903900OUTROS SERVIÇOS DE TERCEIROS - PESSOA JURÍDICA                                                      000000000000060000,00010103
07000701103020073129244905100OBRAS E INSTALAÇÕES                                                                                 000000000000150000,00010103
07000701103020073129244905200EQUIPAMENTOS E MATERIAL PERMANENTE                                                                  000000000000300000,00010103
07000701103020073129244905200EQUIPAMENTOS E MATERIAL PERMANENTE                                                                  000000000000500000,00010109
07000701103020073228533903000MATERIAL DE CONSUMO                                                                                 000000000000075000,00010109
07000701103020073228533903900OUTROS SERVIÇOS DE TERCEIROS - PESSOA JURÍDICA                                                      000000000000030000,00010103
07000701103020073228533903900OUTROS SERVIÇOS DE TERCEIROS - PESSOA JURÍDICA                                                      000000000000170000,00010109
07000701103020073228544905200EQUIPAMENTOS E MATERIAL PERMANENTE                                                                  000000000000084000,00010109
07000701103020073228544905200EQUIPAMENTOS E MATERIAL PERMANENTE                                                                  000000000000036000,00010103
07000701103020073229633903900OUTROS SERVIÇOS DE TERCEIROS - PESSOA JURÍDICA                                                      000000000000096000,00010109
07000701103020073229633903900OUTROS SERVIÇOS DE TERCEIROS - PESSOA JURÍDICA                                                      000000000000020000,00010103
07000701103020073229644905200EQUIPAMENTOS E MATERIAL PERMANENTE                                                                  000000000000020000,00010103
07000701103020073229644905200EQUIPAMENTOS E MATERIAL PERMANENTE                                                                  000000000000040000,00010109
